{
  "_format": "hh-sol-artifact-1",
  "contractName": "PolygonNFT",
  "sourceName": "contracts/PolygonNFT.sol",
  "abi": [
    {
      "inputs": [
        {
          "internalType": "string",
          "name": "_name",
          "type": "string"
        },
        {
          "internalType": "string",
          "name": "_symbol",
          "type": "string"
        }
      ],
      "stateMutability": "nonpayable",
      "type": "constructor"
    },
    {
      "anonymous": false,
      "inputs": [
        {
          "indexed": true,
          "internalType": "address",
          "name": "owner",
          "type": "address"
        },
        {
          "indexed": true,
          "internalType": "address",
          "name": "approved",
          "type": "address"
        },
        {
          "indexed": true,
          "internalType": "uint256",
          "name": "tokenId",
          "type": "uint256"
        }
      ],
      "name": "Approval",
      "type": "event"
    },
    {
      "anonymous": false,
      "inputs": [
        {
          "indexed": true,
          "internalType": "address",
          "name": "owner",
          "type": "address"
        },
        {
          "indexed": true,
          "internalType": "address",
          "name": "operator",
          "type": "address"
        },
        {
          "indexed": false,
          "internalType": "bool",
          "name": "approved",
          "type": "bool"
        }
      ],
      "name": "ApprovalForAll",
      "type": "event"
    },
    {
      "anonymous": false,
      "inputs": [
        {
          "indexed": true,
          "internalType": "address",
          "name": "from",
          "type": "address"
        },
        {
          "indexed": true,
          "internalType": "address",
          "name": "to",
          "type": "address"
        },
        {
          "indexed": true,
          "internalType": "uint256",
          "name": "tokenId",
          "type": "uint256"
        }
      ],
      "name": "Transfer",
      "type": "event"
    },
    {
      "inputs": [
        {
          "internalType": "address",
          "name": "to",
          "type": "address"
        },
        {
          "internalType": "uint256",
          "name": "tokenId",
          "type": "uint256"
        }
      ],
      "name": "approve",
      "outputs": [],
      "stateMutability": "nonpayable",
      "type": "function"
    },
    {
      "inputs": [
        {
          "internalType": "address",
          "name": "owner",
          "type": "address"
        }
      ],
      "name": "balanceOf",
      "outputs": [
        {
          "internalType": "uint256",
          "name": "",
          "type": "uint256"
        }
      ],
      "stateMutability": "view",
      "type": "function"
    },
    {
      "inputs": [
        {
          "internalType": "uint256",
          "name": "tokenId",
          "type": "uint256"
        }
      ],
      "name": "getApproved",
      "outputs": [
        {
          "internalType": "address",
          "name": "",
          "type": "address"
        }
      ],
      "stateMutability": "view",
      "type": "function"
    },
    {
      "inputs": [
        {
          "internalType": "address",
          "name": "owner",
          "type": "address"
        },
        {
          "internalType": "address",
          "name": "operator",
          "type": "address"
        }
      ],
      "name": "isApprovedForAll",
      "outputs": [
        {
          "internalType": "bool",
          "name": "",
          "type": "bool"
        }
      ],
      "stateMutability": "view",
      "type": "function"
    },
    {
      "inputs": [
        {
          "internalType": "address",
          "name": "to",
          "type": "address"
        },
        {
          "internalType": "string",
          "name": "tokenURI",
          "type": "string"
        }
      ],
      "name": "mint",
      "outputs": [
        {
          "internalType": "uint256",
          "name": "",
          "type": "uint256"
        }
      ],
      "stateMutability": "nonpayable",
      "type": "function"
    },
    {
      "inputs": [],
      "name": "name",
      "outputs": [
        {
          "internalType": "string",
          "name": "",
          "type": "string"
        }
      ],
      "stateMutability": "view",
      "type": "function"
    },
    {
      "inputs": [
        {
          "internalType": "uint256",
          "name": "tokenId",
          "type": "uint256"
        }
      ],
      "name": "ownerOf",
      "outputs": [
        {
          "internalType": "address",
          "name": "",
          "type": "address"
        }
      ],
      "stateMutability": "view",
      "type": "function"
    },
    {
      "inputs": [
        {
          "internalType": "address",
          "name": "from",
          "type": "address"
        },
        {
          "internalType": "address",
          "name": "to",
          "type": "address"
        },
        {
          "internalType": "uint256",
          "name": "tokenId",
          "type": "uint256"
        }
      ],
      "name": "safeTransferFrom",
      "outputs": [],
      "stateMutability": "nonpayable",
      "type": "function"
    },
    {
      "inputs": [
        {
          "internalType": "address",
          "name": "from",
          "type": "address"
        },
        {
          "internalType": "address",
          "name": "to",
          "type": "address"
        },
        {
          "internalType": "uint256",
          "name": "tokenId",
          "type": "uint256"
        },
        {
          "internalType": "bytes",
          "name": "data",
          "type": "bytes"
        }
      ],
      "name": "safeTransferFrom",
      "outputs": [],
      "stateMutability": "nonpayable",
      "type": "function"
    },
    {
      "inputs": [
        {
          "internalType": "address",
          "name": "operator",
          "type": "address"
        },
        {
          "internalType": "bool",
          "name": "approved",
          "type": "bool"
        }
      ],
      "name": "setApprovalForAll",
      "outputs": [],
      "stateMutability": "nonpayable",
      "type": "function"
    },
    {
      "inputs": [
        {
          "internalType": "bytes4",
          "name": "interfaceId",
          "type": "bytes4"
        }
      ],
      "name": "supportsInterface",
      "outputs": [
        {
          "internalType": "bool",
          "name": "",
          "type": "bool"
        }
      ],
      "stateMutability": "view",
      "type": "function"
    },
    {
      "inputs": [],
      "name": "symbol",
      "outputs": [
        {
          "internalType": "string",
          "name": "",
          "type": "string"
        }
      ],
      "stateMutability": "view",
      "type": "function"
    },
    {
      "inputs": [
        {
          "internalType": "uint256",
          "name": "tokenId",
          "type": "uint256"
        }
      ],
      "name": "tokenURI",
      "outputs": [
        {
          "internalType": "string",
          "name": "",
          "type": "string"
        }
      ],
      "stateMutability": "view",
      "type": "function"
    },
    {
      "inputs": [
        {
          "internalType": "address",
          "name": "from",
          "type": "address"
        },
        {
          "internalType": "address",
          "name": "to",
          "type": "address"
        },
        {
          "internalType": "uint256",
          "name": "tokenId",
          "type": "uint256"
        }
      ],
      "name": "transferFrom",
      "outputs": [],
      "stateMutability": "nonpayable",
      "type": "function"
    }
  ],
  "bytecode": "0x60806040523480156200001157600080fd5b5060405162002cdd38038062002cdd8339818101604052810190620000379190620002c2565b818181600090805190602001906200005192919062000075565b5080600190805190602001906200006a92919062000075565b5050505050620003ac565b828054620000839062000376565b90600052602060002090601f016020900481019282620000a75760008555620000f3565b82601f10620000c257805160ff1916838001178555620000f3565b82800160010185558215620000f3579182015b82811115620000f2578251825591602001919060010190620000d5565b5b50905062000102919062000106565b5090565b5b808211156200012157600081600090555060010162000107565b5090565b6000604051905090565b600080fd5b600080fd5b600080fd5b600080fd5b6000601f19601f8301169050919050565b7f4e487b7100000000000000000000000000000000000000000000000000000000600052604160045260246000fd5b6200018e8262000143565b810181811067ffffffffffffffff82111715620001b057620001af62000154565b5b80604052505050565b6000620001c562000125565b9050620001d3828262000183565b919050565b600067ffffffffffffffff821115620001f657620001f562000154565b5b620002018262000143565b9050602081019050919050565b60005b838110156200022e57808201518184015260208101905062000211565b838111156200023e576000848401525b50505050565b60006200025b6200025584620001d8565b620001b9565b9050828152602081018484840111156200027a57620002796200013e565b5b620002878482856200020e565b509392505050565b600082601f830112620002a757620002a662000139565b5b8151620002b984826020860162000244565b91505092915050565b60008060408385031215620002dc57620002db6200012f565b5b600083015167ffffffffffffffff811115620002fd57620002fc62000134565b5b6200030b858286016200028f565b925050602083015167ffffffffffffffff8111156200032f576200032e62000134565b5b6200033d858286016200028f565b9150509250929050565b7f4e487b7100000000000000000000000000000000000000000000000000000000600052602260045260246000fd5b600060028204905060018216806200038f57607f821691505b60208210811415620003a657620003a562000347565b5b50919050565b61292180620003bc6000396000f3fe608060405234801561001057600080fd5b50600436106100ea5760003560e01c806370a082311161008c578063b88d4fde11610066578063b88d4fde1461025b578063c87b56dd14610277578063d0def521146102a7578063e985e9c5146102d7576100ea565b806370a08231146101f157806395d89b4114610221578063a22cb4651461023f576100ea565b8063095ea7b3116100c8578063095ea7b31461016d57806323b872dd1461018957806342842e0e146101a55780636352211e146101c1576100ea565b806301ffc9a7146100ef57806306fdde031461011f578063081812fc1461013d575b600080fd5b610109600480360381019061010491906118f1565b610307565b6040516101169190611939565b60405180910390f35b6101276103e9565b60405161013491906119ed565b60405180910390f35b61015760048036038101906101529190611a45565b61047b565b6040516101649190611ab3565b60405180910390f35b61018760048036038101906101829190611afa565b6104c1565b005b6101a3600480360381019061019e9190611b3a565b6105d9565b005b6101bf60048036038101906101ba9190611b3a565b610639565b005b6101db60048036038101906101d69190611a45565b610659565b6040516101e89190611ab3565b60405180910390f35b61020b60048036038101906102069190611b8d565b61070b565b6040516102189190611bc9565b60405180910390f35b6102296107c3565b60405161023691906119ed565b60405180910390f35b61025960048036038101906102549190611c10565b610855565b005b61027560048036038101906102709190611d85565b61086b565b005b610291600480360381019061028c9190611a45565b6108cd565b60405161029e91906119ed565b60405180910390f35b6102c160048036038101906102bc9190611ea9565b6109e0565b6040516102ce9190611bc9565b60405180910390f35b6102f160048036038101906102ec9190611f05565b610a18565b6040516102fe9190611939565b60405180910390f35b60007f80ac58cd000000000000000000000000000000000000000000000000000000007bffffffffffffffffffffffffffffffffffffffffffffffffffffffff1916827bffffffffffffffffffffffffffffffffffffffffffffffffffffffff191614806103d257507f5b5e139f000000000000000000000000000000000000000000000000000000007bffffffffffffffffffffffffffffffffffffffffffffffffffffffff1916827bffffffffffffffffffffffffffffffffffffffffffffffffffffffff1916145b806103e257506103e182610aac565b5b9050919050565b6060600080546103f890611f74565b80601f016020809104026020016040519081016040528092919081815260200182805461042490611f74565b80156104715780601f1061044657610100808354040283529160200191610471565b820191906000526020600020905b81548152906001019060200180831161045457829003601f168201915b5050505050905090565b600061048682610b16565b6004600083815260200190815260200160002060009054906101000a900473ffffffffffffffffffffffffffffffffffffffff169050919050565b60006104cc82610659565b90508073ffffffffffffffffffffffffffffffffffffffff168373ffffffffffffffffffffffffffffffffffffffff16141561053d576040517f08c379a000000000000000000000000000000000000000000000000000000000815260040161053490612018565b60405180910390fd5b8073ffffffffffffffffffffffffffffffffffffffff1661055c610b61565b73ffffffffffffffffffffffffffffffffffffffff16148061058b575061058a81610585610b61565b610a18565b5b6105ca576040517f08c379a00000000000000000000000000000000000000000000000000000000081526004016105c1906120aa565b60405180910390fd5b6105d48383610b69565b505050565b6105ea6105e4610b61565b82610c22565b610629576040517f08c379a00000000000000000000000000000000000000000000000000000000081526004016106209061213c565b60405180910390fd5b610634838383610cb7565b505050565b6106548383836040518060200160405280600081525061086b565b505050565b6000806002600084815260200190815260200160002060009054906101000a900473ffffffffffffffffffffffffffffffffffffffff169050600073ffffffffffffffffffffffffffffffffffffffff168173ffffffffffffffffffffffffffffffffffffffff161415610702576040517f08c379a00000000000000000000000000000000000000000000000000000000081526004016106f9906121a8565b60405180910390fd5b80915050919050565b60008073ffffffffffffffffffffffffffffffffffffffff168273ffffffffffffffffffffffffffffffffffffffff16141561077c576040517f08c379a00000000000000000000000000000000000000000000000000000000081526004016107739061223a565b60405180910390fd5b600360008373ffffffffffffffffffffffffffffffffffffffff1673ffffffffffffffffffffffffffffffffffffffff168152602001908152602001600020549050919050565b6060600180546107d290611f74565b80601f01602080910402602001604051908101604052809291908181526020018280546107fe90611f74565b801561084b5780601f106108205761010080835404028352916020019161084b565b820191906000526020600020905b81548152906001019060200180831161082e57829003601f168201915b5050505050905090565b610867610860610b61565b8383610f1e565b5050565b61087c610876610b61565b83610c22565b6108bb576040517f08c379a00000000000000000000000000000000000000000000000000000000081526004016108b29061213c565b60405180910390fd5b6108c78484848461108b565b50505050565b60606108d882610b16565b60006006600084815260200190815260200160002080546108f890611f74565b80601f016020809104026020016040519081016040528092919081815260200182805461092490611f74565b80156109715780601f1061094657610100808354040283529160200191610971565b820191906000526020600020905b81548152906001019060200180831161095457829003601f168201915b5050505050905060006109826110e7565b90506000815114156109985781925050506109db565b6000825111156109cd5780826040516020016109b5929190612296565b604051602081830303815290604052925050506109db565b6109d6846110fe565b925050505b919050565b60006109ec6007611166565b60006109f8600761117c565b9050610a04848261118a565b610a0e81846111a8565b8091505092915050565b6000600560008473ffffffffffffffffffffffffffffffffffffffff1673ffffffffffffffffffffffffffffffffffffffff16815260200190815260200160002060008373ffffffffffffffffffffffffffffffffffffffff1673ffffffffffffffffffffffffffffffffffffffff16815260200190815260200160002060009054906101000a900460ff16905092915050565b60007f01ffc9a7000000000000000000000000000000000000000000000000000000007bffffffffffffffffffffffffffffffffffffffffffffffffffffffff1916827bffffffffffffffffffffffffffffffffffffffffffffffffffffffff1916149050919050565b610b1f8161121c565b610b5e576040517f08c379a0000000000000000000000000000000000000000000000000000000008152600401610b55906121a8565b60405180910390fd5b50565b600033905090565b816004600083815260200190815260200160002060006101000a81548173ffffffffffffffffffffffffffffffffffffffff021916908373ffffffffffffffffffffffffffffffffffffffff160217905550808273ffffffffffffffffffffffffffffffffffffffff16610bdc83610659565b73ffffffffffffffffffffffffffffffffffffffff167f8c5be1e5ebec7d5bd14f71427d1e84f3dd0314c0f7b2291e5b200ac8c7c3b92560405160405180910390a45050565b600080610c2e83610659565b90508073ffffffffffffffffffffffffffffffffffffffff168473ffffffffffffffffffffffffffffffffffffffff161480610c705750610c6f8185610a18565b5b80610cae57508373ffffffffffffffffffffffffffffffffffffffff16610c968461047b565b73ffffffffffffffffffffffffffffffffffffffff16145b91505092915050565b8273ffffffffffffffffffffffffffffffffffffffff16610cd782610659565b73ffffffffffffffffffffffffffffffffffffffff1614610d2d576040517f08c379a0000000000000000000000000000000000000000000000000000000008152600401610d249061232c565b60405180910390fd5b600073ffffffffffffffffffffffffffffffffffffffff168273ffffffffffffffffffffffffffffffffffffffff161415610d9d576040517f08c379a0000000000000000000000000000000000000000000000000000000008152600401610d94906123be565b60405180910390fd5b610da8838383611288565b610db3600082610b69565b6001600360008573ffffffffffffffffffffffffffffffffffffffff1673ffffffffffffffffffffffffffffffffffffffff1681526020019081526020016000206000828254610e03919061240d565b925050819055506001600360008473ffffffffffffffffffffffffffffffffffffffff1673ffffffffffffffffffffffffffffffffffffffff1681526020019081526020016000206000828254610e5a9190612441565b92505081905550816002600083815260200190815260200160002060006101000a81548173ffffffffffffffffffffffffffffffffffffffff021916908373ffffffffffffffffffffffffffffffffffffffff160217905550808273ffffffffffffffffffffffffffffffffffffffff168473ffffffffffffffffffffffffffffffffffffffff167fddf252ad1be2c89b69c2b068fc378daa952ba7f163c4a11628f55a4df523b3ef60405160405180910390a4610f1983838361128d565b505050565b8173ffffffffffffffffffffffffffffffffffffffff168373ffffffffffffffffffffffffffffffffffffffff161415610f8d576040517f08c379a0000000000000000000000000000000000000000000000000000000008152600401610f84906124e3565b60405180910390fd5b80600560008573ffffffffffffffffffffffffffffffffffffffff1673ffffffffffffffffffffffffffffffffffffffff16815260200190815260200160002060008473ffffffffffffffffffffffffffffffffffffffff1673ffffffffffffffffffffffffffffffffffffffff16815260200190815260200160002060006101000a81548160ff0219169083151502179055508173ffffffffffffffffffffffffffffffffffffffff168373ffffffffffffffffffffffffffffffffffffffff167f17307eab39ab6107e8899845ad3d59bd9653f200f220920489ca2b5937696c318360405161107e9190611939565b60405180910390a3505050565b611096848484610cb7565b6110a284848484611292565b6110e1576040517f08c379a00000000000000000000000000000000000000000000000000000000081526004016110d890612575565b60405180910390fd5b50505050565b606060405180602001604052806000815250905090565b606061110982610b16565b60006111136110e7565b90506000815111611133576040518060200160405280600081525061115e565b8061113d84611429565b60405160200161114e929190612296565b6040516020818303038152906040525b915050919050565b6001816000016000828254019250508190555050565b600081600001549050919050565b6111a482826040518060200160405280600081525061158a565b5050565b6111b18261121c565b6111f0576040517f08c379a00000000000000000000000000000000000000000000000000000000081526004016111e790612607565b60405180910390fd5b806006600084815260200190815260200160002090805190602001906112179291906117e2565b505050565b60008073ffffffffffffffffffffffffffffffffffffffff166002600084815260200190815260200160002060009054906101000a900473ffffffffffffffffffffffffffffffffffffffff1673ffffffffffffffffffffffffffffffffffffffff1614159050919050565b505050565b505050565b60006112b38473ffffffffffffffffffffffffffffffffffffffff166115e5565b1561141c578373ffffffffffffffffffffffffffffffffffffffff1663150b7a026112dc610b61565b8786866040518563ffffffff1660e01b81526004016112fe949392919061267c565b602060405180830381600087803b15801561131857600080fd5b505af192505050801561134957506040513d601f19601f8201168201806040525081019061134691906126dd565b60015b6113cc573d8060008114611379576040519150601f19603f3d011682016040523d82523d6000602084013e61137e565b606091505b506000815114156113c4576040517f08c379a00000000000000000000000000000000000000000000000000000000081526004016113bb90612575565b60405180910390fd5b805181602001fd5b63150b7a0260e01b7bffffffffffffffffffffffffffffffffffffffffffffffffffffffff1916817bffffffffffffffffffffffffffffffffffffffffffffffffffffffff191614915050611421565b600190505b949350505050565b60606000821415611471576040518060400160405280600181526020017f30000000000000000000000000000000000000000000000000000000000000008152509050611585565b600082905060005b600082146114a357808061148c9061270a565b915050600a8261149c9190612782565b9150611479565b60008167ffffffffffffffff8111156114bf576114be611c5a565b5b6040519080825280601f01601f1916602001820160405280156114f15781602001600182028036833780820191505090505b5090505b6000851461157e5760018261150a919061240d565b9150600a8561151991906127b3565b60306115259190612441565b60f81b81838151811061153b5761153a6127e4565b5b60200101907effffffffffffffffffffffffffffffffffffffffffffffffffffffffffffff1916908160001a905350600a856115779190612782565b94506114f5565b8093505050505b919050565b6115948383611608565b6115a16000848484611292565b6115e0576040517f08c379a00000000000000000000000000000000000000000000000000000000081526004016115d790612575565b60405180910390fd5b505050565b6000808273ffffffffffffffffffffffffffffffffffffffff163b119050919050565b600073ffffffffffffffffffffffffffffffffffffffff168273ffffffffffffffffffffffffffffffffffffffff161415611678576040517f08c379a000000000000000000000000000000000000000000000000000000000815260040161166f9061285f565b60405180910390fd5b6116818161121c565b156116c1576040517f08c379a00000000000000000000000000000000000000000000000000000000081526004016116b8906128cb565b60405180910390fd5b6116cd60008383611288565b6001600360008473ffffffffffffffffffffffffffffffffffffffff1673ffffffffffffffffffffffffffffffffffffffff168152602001908152602001600020600082825461171d9190612441565b92505081905550816002600083815260200190815260200160002060006101000a81548173ffffffffffffffffffffffffffffffffffffffff021916908373ffffffffffffffffffffffffffffffffffffffff160217905550808273ffffffffffffffffffffffffffffffffffffffff16600073ffffffffffffffffffffffffffffffffffffffff167fddf252ad1be2c89b69c2b068fc378daa952ba7f163c4a11628f55a4df523b3ef60405160405180910390a46117de6000838361128d565b5050565b8280546117ee90611f74565b90600052602060002090601f0160209004810192826118105760008555611857565b82601f1061182957805160ff1916838001178555611857565b82800160010185558215611857579182015b8281111561185657825182559160200191906001019061183b565b5b5090506118649190611868565b5090565b5b80821115611881576000816000905550600101611869565b5090565b6000604051905090565b600080fd5b600080fd5b60007fffffffff0000000000000000000000000000000000000000000000000000000082169050919050565b6118ce81611899565b81146118d957600080fd5b50565b6000813590506118eb816118c5565b92915050565b6000602082840312156119075761190661188f565b5b6000611915848285016118dc565b91505092915050565b60008115159050919050565b6119338161191e565b82525050565b600060208201905061194e600083018461192a565b92915050565b600081519050919050565b600082825260208201905092915050565b60005b8381101561198e578082015181840152602081019050611973565b8381111561199d576000848401525b50505050565b6000601f19601f8301169050919050565b60006119bf82611954565b6119c9818561195f565b93506119d9818560208601611970565b6119e2816119a3565b840191505092915050565b60006020820190508181036000830152611a0781846119b4565b905092915050565b6000819050919050565b611a2281611a0f565b8114611a2d57600080fd5b50565b600081359050611a3f81611a19565b92915050565b600060208284031215611a5b57611a5a61188f565b5b6000611a6984828501611a30565b91505092915050565b600073ffffffffffffffffffffffffffffffffffffffff82169050919050565b6000611a9d82611a72565b9050919050565b611aad81611a92565b82525050565b6000602082019050611ac86000830184611aa4565b92915050565b611ad781611a92565b8114611ae257600080fd5b50565b600081359050611af481611ace565b92915050565b60008060408385031215611b1157611b1061188f565b5b6000611b1f85828601611ae5565b9250506020611b3085828601611a30565b9150509250929050565b600080600060608486031215611b5357611b5261188f565b5b6000611b6186828701611ae5565b9350506020611b7286828701611ae5565b9250506040611b8386828701611a30565b9150509250925092565b600060208284031215611ba357611ba261188f565b5b6000611bb184828501611ae5565b91505092915050565b611bc381611a0f565b82525050565b6000602082019050611bde6000830184611bba565b92915050565b611bed8161191e565b8114611bf857600080fd5b50565b600081359050611c0a81611be4565b92915050565b60008060408385031215611c2757611c2661188f565b5b6000611c3585828601611ae5565b9250506020611c4685828601611bfb565b9150509250929050565b600080fd5b600080fd5b7f4e487b7100000000000000000000000000000000000000000000000000000000600052604160045260246000fd5b611c92826119a3565b810181811067ffffffffffffffff82111715611cb157611cb0611c5a565b5b80604052505050565b6000611cc4611885565b9050611cd08282611c89565b919050565b600067ffffffffffffffff821115611cf057611cef611c5a565b5b611cf9826119a3565b9050602081019050919050565b82818337600083830152505050565b6000611d28611d2384611cd5565b611cba565b905082815260208101848484011115611d4457611d43611c55565b5b611d4f848285611d06565b509392505050565b600082601f830112611d6c57611d6b611c50565b5b8135611d7c848260208601611d15565b91505092915050565b60008060008060808587031215611d9f57611d9e61188f565b5b6000611dad87828801611ae5565b9450506020611dbe87828801611ae5565b9350506040611dcf87828801611a30565b925050606085013567ffffffffffffffff811115611df057611def611894565b5b611dfc87828801611d57565b91505092959194509250565b600067ffffffffffffffff821115611e2357611e22611c5a565b5b611e2c826119a3565b9050602081019050919050565b6000611e4c611e4784611e08565b611cba565b905082815260208101848484011115611e6857611e67611c55565b5b611e73848285611d06565b509392505050565b600082601f830112611e9057611e8f611c50565b5b8135611ea0848260208601611e39565b91505092915050565b60008060408385031215611ec057611ebf61188f565b5b6000611ece85828601611ae5565b925050602083013567ffffffffffffffff811115611eef57611eee611894565b5b611efb85828601611e7b565b9150509250929050565b60008060408385031215611f1c57611f1b61188f565b5b6000611f2a85828601611ae5565b9250506020611f3b85828601611ae5565b9150509250929050565b7f4e487b7100000000000000000000000000000000000000000000000000000000600052602260045260246000fd5b60006002820490506001821680611f8c57607f821691505b60208210811415611fa057611f9f611f45565b5b50919050565b7f4552433732313a20617070726f76616c20746f2063757272656e74206f776e6560008201527f7200000000000000000000000000000000000000000000000000000000000000602082015250565b600061200260218361195f565b915061200d82611fa6565b604082019050919050565b6000602082019050818103600083015261203181611ff5565b9050919050565b7f4552433732313a20617070726f76652063616c6c6572206973206e6f7420746f60008201527f6b656e206f776e6572206e6f7220617070726f76656420666f7220616c6c0000602082015250565b6000612094603e8361195f565b915061209f82612038565b604082019050919050565b600060208201905081810360008301526120c381612087565b9050919050565b7f4552433732313a2063616c6c6572206973206e6f7420746f6b656e206f776e6560008201527f72206e6f7220617070726f766564000000000000000000000000000000000000602082015250565b6000612126602e8361195f565b9150612131826120ca565b604082019050919050565b6000602082019050818103600083015261215581612119565b9050919050565b7f4552433732313a20696e76616c696420746f6b656e2049440000000000000000600082015250565b600061219260188361195f565b915061219d8261215c565b602082019050919050565b600060208201905081810360008301526121c181612185565b9050919050565b7f4552433732313a2061646472657373207a65726f206973206e6f74206120766160008201527f6c6964206f776e65720000000000000000000000000000000000000000000000602082015250565b600061222460298361195f565b915061222f826121c8565b604082019050919050565b6000602082019050818103600083015261225381612217565b9050919050565b600081905092915050565b600061227082611954565b61227a818561225a565b935061228a818560208601611970565b80840191505092915050565b60006122a28285612265565b91506122ae8284612265565b91508190509392505050565b7f4552433732313a207472616e736665722066726f6d20696e636f72726563742060008201527f6f776e6572000000000000000000000000000000000000000000000000000000602082015250565b600061231660258361195f565b9150612321826122ba565b604082019050919050565b6000602082019050818103600083015261234581612309565b9050919050565b7f4552433732313a207472616e7366657220746f20746865207a65726f2061646460008201527f7265737300000000000000000000000000000000000000000000000000000000602082015250565b60006123a860248361195f565b91506123b38261234c565b604082019050919050565b600060208201905081810360008301526123d78161239b565b9050919050565b7f4e487b7100000000000000000000000000000000000000000000000000000000600052601160045260246000fd5b600061241882611a0f565b915061242383611a0f565b925082821015612436576124356123de565b5b828203905092915050565b600061244c82611a0f565b915061245783611a0f565b9250827fffffffffffffffffffffffffffffffffffffffffffffffffffffffffffffffff0382111561248c5761248b6123de565b5b828201905092915050565b7f4552433732313a20617070726f766520746f2063616c6c657200000000000000600082015250565b60006124cd60198361195f565b91506124d882612497565b602082019050919050565b600060208201905081810360008301526124fc816124c0565b9050919050565b7f4552433732313a207472616e7366657220746f206e6f6e20455243373231526560008201527f63656976657220696d706c656d656e7465720000000000000000000000000000602082015250565b600061255f60328361195f565b915061256a82612503565b604082019050919050565b6000602082019050818103600083015261258e81612552565b9050919050565b7f45524337323155524953746f726167653a2055524920736574206f66206e6f6e60008201527f6578697374656e7420746f6b656e000000000000000000000000000000000000602082015250565b60006125f1602e8361195f565b91506125fc82612595565b604082019050919050565b60006020820190508181036000830152612620816125e4565b9050919050565b600081519050919050565b600082825260208201905092915050565b600061264e82612627565b6126588185612632565b9350612668818560208601611970565b612671816119a3565b840191505092915050565b60006080820190506126916000830187611aa4565b61269e6020830186611aa4565b6126ab6040830185611bba565b81810360608301526126bd8184612643565b905095945050505050565b6000815190506126d7816118c5565b92915050565b6000602082840312156126f3576126f261188f565b5b6000612701848285016126c8565b91505092915050565b600061271582611a0f565b91507fffffffffffffffffffffffffffffffffffffffffffffffffffffffffffffffff821415612748576127476123de565b5b600182019050919050565b7f4e487b7100000000000000000000000000000000000000000000000000000000600052601260045260246000fd5b600061278d82611a0f565b915061279883611a0f565b9250826127a8576127a7612753565b5b828204905092915050565b60006127be82611a0f565b91506127c983611a0f565b9250826127d9576127d8612753565b5b828206905092915050565b7f4e487b7100000000000000000000000000000000000000000000000000000000600052603260045260246000fd5b7f4552433732313a206d696e7420746f20746865207a65726f2061646472657373600082015250565b600061284960208361195f565b915061285482612813565b602082019050919050565b600060208201905081810360008301526128788161283c565b9050919050565b7f4552433732313a20746f6b656e20616c7265616479206d696e74656400000000600082015250565b60006128b5601c8361195f565b91506128c08261287f565b602082019050919050565b600060208201905081810360008301526128e4816128a8565b905091905056fea264697066735822122046b5723611773e96a946e5a574afb9aecd3dfa1857f0e39f43348adbc050fe2664736f6c63430008090033",
  "linkReferences": {},
  "deployedLinkReferences": {}
}